:06000000020DA302006BDB
:03000B0002006B85
:0300130002006B7D
:03001B0002006B75
:0300230002006B6D
:03002B0002006B65
:0300330002006B5D
:03003B0002006B55
:0300430002006B4D
:03004B0002006B45
:0300530002006B3D
:03005B0002006B35
:0300630002006B2D
:01006B003262
:0900800002006B0002006B00029B
:08008900006B0002006B000295
:08009100006B0002006B00028D
:08009900006B0002006B000285
:0800A100006B0002006B00027D
:0800A900006B0002006B000275
:0700B100006B0002006B0070
:0901000002006B0002006B00021A
:08010900006B0002006B000214
:08011100006B0002006B00020C
:08011900006B0002006B000204
:08012100006B0002006B0002FC
:08012900006B0002006B0002F4
:08013100006B0002006B0002EC
:08013900006B0002006B0002E4
:08014100006B0002006B0002DC
:08014900006B0002006B0002D4
:08015100006B0002006B0002CC
:08015900006B0002006B0002C4
:08016100006B0002006B0002BC
:08016900006B0002006B0002B4
:08017100006B0002006B0002AC
:07017900006B0002006B00A7
:030DD100020DD937
:070DA300750C0175080075D5
:060DAA000900750A007546
:040DB0000B00C20072
:030DEC00020DD421
:050DD4001203A280FEE5
:0B018000AA82AB83EA4B24FF9280228E
:05018B0090E68BE4F09A
:0901900090E6A0E0FA20E1F8225B
:0E019900AA82AB8390E6047480F00090E60426
:0A01A700EAF00090E604E4F0002204
:0E01B100AA82AB83EA4B600890E60174E3F08B
:0201BF008006B8
:0601C10090E60174C3F09A
:0501C7008A820204F130
:0E01CC0090E6B8E0FABAC06190E6B9E0FABA7F
:0401DA008002800F10
:0501DE00BA8102800E51
:0501E300BA8202803722
:0501E800BA83468036D9
:0401ED0075820022F5
:0A01F10090E6BAE0FA75224075238B
:0C01FB00E790E6BEE0F5248A821206358B
:07020700E5827003F582227D
:0E020E0090E68AE4F090E6BEE0FA90E68BF00F
:03021C0002031CBE
:04021F0075820022C2
:0E02230090E68AE4F090E68B7404F002031C6F
:0402310075820022B0
:0A02350090E6B8E0FABA4002800338
:03023F000203189F
:0A02420090E6B9E0FABA0102802646
:05024C00BA0202804926
:06025100BA04030202C41E
:06025700BA08030202D404
:06025D00BA0C030202F4DA
:06026300BA0D03020304C2
:06026900BA0E0302031CA3
:03026F0002031473
:0C02720090E6BCE0FA6005BA011A800CAE
:0C027E0090E6BAE0F5821204F102031CC5
:0C028A0090E6BAE0F5821204FE02031CAC
:04029600758200224B
:0C029A0090E6BCE0FA600ABA010280089D
:0502A600BA02178012EE
:0302AB0002051534
:0C02AE0012018B90E68BE0F50F90E7400A
:0302BA0002057FBB
:0302BD0002058FA8
:0402C0007582002221
:0E02C40090E6BAE0FA7B008A828B83120180FA
:0202D200804862
:0C02D40012018B90E6BAE0FA752240752A
:0A02E00023E790E68BE0F5248A8204
:0A02EA001206F5E582702BF5822262
:0E02F40090E6BAE0FA7B008A828B83120199B1
:02030200801861
:0E03040090E6BAE0FA7B008A828B831201B188
:02031200800861
:0403140075820022CC
:0403180075820022C8
:04031C0075820122C3
:080320003001FD1208F080F825
:0A032800C0E0D50C06750C3263A08E
:0103320001C9
:05033300C2CFD0E03252
:0403380075130075C4
:03033C001418751D
:09033F00120575150175825012BA
:08034800059E901800E0FA90F8
:0C035000E00CF090E07AEAF074302A90A3
:05035C00E0F0F0751354
:030361000175140F
:05036400187512F77589
:0A036900150975825012059E7A00F6
:03037300BA0900C4
:0A0376005029EA2401F582E434184E
:09038000F583E0FBBBFF027B30BA
:0C0389008A04E4CC25E0CC33FDEC244CCD
:0C039500F582ED34E1F583EBF00A80D234
:0103A1002239
:0803A200752200752310E4F53B
:0B03AA002490E1F075F00012076E12C5
:0C03B50003D87582001204F1758200125A
:0803C10004FEC2AF1203381262
:0A03C9000CD612085AD2EAD2AF1285
:0503D3000611020320E9
:0E03D80090E6007410F0758E0090E60174E05F
:0E03E600F00075800075B20B75A00375B403AE
:0E03F40075B10075B60090E61074A0F0009090
:0E040200E61174E0F00090E61274A2F0009093
:0E041000E61374A2F00090E61474E2F000907F
:0E041E00E61574E2F00090E6047480F00090A1
:0E042C00E6047402F00090E6047404F0009000
:0E043A00E6047406F00090E6047408F00090EA
:0D044800E604E4F00090E6187401F0009066
:0E045500E6187411F00090E61A7405F000909D
:0E046300E61A740DF00090E6197401F0009096
:0E047100E6197411F00090E61B7405F000907F
:0D047F00E61B740DF00090E68AE4F000909A
:0D048C00E68DE4F00090E6247402F000908C
:0D049900E625E4F00090E6267402F00090E5
:0E04A600E627E4F00090E6027498F090E6037A
:0E04B4007476F090E6347409F00090E635742A
:0E04C200FDF00090E6367409F00090E6377405
:0E04D000FDF00090E618E04420F090E619E000
:0E04DE00FA4420F090E609E4F00090E6707415
:0504EC0080F002051480
:0904F100E582FA700443A0012227
:0404FA0053A0FE22EB
:0904FE00E582FA700443A0022219
:0405070053A0FD22DE
:04050B0063A00122C6
:04050F0063A00222C1
:0105130022C5
:0105140022C4
:0E0515005380E4758228120D7F4380027582A8
:020523000122B3
:0E052500E582339283D280C280339283D280EB
:0E053300C280339283D280C280339283D28002
:0E054100C280339283D280C280339283D280F4
:0E054F00C280339283D280C280339283D280E6
:03055D00C2802237
:06056000AA82AB0DAC0EF7
:0E0566008A051AED60128B828C83E0FDA3AB38
:0A05740082AC838D8212052580E819
:01057E00225A
:07057F0085820D85830E85C6
:090586000F82120560758201224A
:09058F00E58030A7047582012209
:040598007582002246
:070DB400751000751100909D
:090DBB00180BE4F090180CF09004
:070DC400180DF090180EF06D
:01059C00223C
:01059D00223B
:0E0DEF000101010101010107000000000000E8
:0E0DFD000000000000000000000000000000E8
:0E0E0B000000003F013F010101010107220329
:0E0E19000202020202000001010101010100BB
:0E0E2700000000000000003F0111013F01012A
:0E0E3500010700030001000000000604040095
:0E0E430000000000002D002D0000003F0139CE
:0E0E510001010101010700030202020202007A
:0E0E5F000000000000000000002D0000000058
:020E6D00003F44
:0E0E6F00812D0E000004030200812D090000F9
:0E0E7D0004030200812D060000040302008120
:080E8B002D0100000403020028
:070E9300A0000000EE4E007C
:0CE0000012010002FFFFFF40002502009B
:06E00C0000010102060103
:0AE012000A060002FFFFFF400100B4
:0EE01C0009025200050100C0000904000000C6
:0EE02A00FFFFFF030904010001FFFFFF0407D1
:0EE038000502020002000904020001FFFFFFC2
:0EE0460005070586020002000904030001FF21
:0EE05400FFFF07070504020002000904040094
:0CE0620001FFFFFF080705880200020014
:0CE06E0012010002FFFFFF40002502002D
:06E07A000001010200019B
:0AE080000A060002FFFFFF40010046
:0EE08A0009021200010100C00009040000009C
:04E09800FFFFFF0384
:01E09C00097A
:02E09D00B0E0F1
:02E09F00B6E0E9
:02E0A100DCE0C1
:02E0A300F2E0A9
:02E0A50014E184
:02E0A70030E166
:02E0A9004AE14A
:02E0AB005EE134
:02E0AD0080E110
:06E0B00006030000090454
:0EE0B6002603450074007400750073002000FE
:0EE0C400520065007300650061007200630089
:0AE0D200680020004C004C004300E1
:0EE0DC00160355005300520050002000420071
:06E0EA003100300030009F
:02E0F0003F00EF
:0EE0F200220343006F006D006D0061006E00A0
:0EE1000064002000260020005300740061001F
:06E10E00740075007300AF
:0EE114001C035400720061006E0073006D0069
:0EE12200690074002000500061007400680065
:0EE130001A0352006500630065006900760066
:0CE13E00650020005000610074006800C3
:02E14A001403BC
:0EE14C0033002E003100340031003500390060
:04E15A003200370058
:0EE15E0022034600500047004100200043000D
:0EE16C006F006D006D0061006E006400200009
:06E17A004F007500740067
:0EE180002003460050004700410020004300ED
:0EE18E006F006D006D0061006E0064002000E7
:04E19C0049006E00C8
:09059E00AA8290180FE512F07515
:0305A700220F75AB
:0305AA002318759E
:0C05AD0024018A82C0021206F5E582D00B
:0605B900027003F582222E
:0405BF0085132285F9
:0305C30014238579
:0505C60015248A8202E9
:0205CB000635F3
:0805CD007810E84400600C798D
:0C05D50001901800E4F0A3D8FCD9FAD083
:0E05E10083D082F6D8FDC082C08375820022CE
:0805EF0090E6A0E04401F022B7
:0E05F700AA8274805AC423541FFB740F5A90BA
:0C060500E6834BF090E683E04420F022F6
:0E06110090E680E0440AF09000FA120D9290FC
:0E061F00E65D74FFF090E65F74FFF05391EF1C
:08062D0090E680E054F7F02292
:060DE600E478FFF6D8FDE1
:0A063500AA82E524700475820122F8
:0E063F0090E678E0FB20E6F890E6787480F014
:0A064D00EA2AFA90E67974014AF0F7
:0E06570090E678E0FA30E0F890E678E0FA30CD
:05066500E2030206EAB9
:0B066A0090E678E0FA20E1030206EAC7
:0C0675007401B5240890E678E0FA4420F7
:01068100F088
:0906820090E679E0F525AA22AB0F
:03068B0023AC2479
:04068E001CEC6030D0
:0E06920090E678E0FD30E0F890E678E0FD209C
:0D06A000E248BC010890E678E0FD4420F03F
:0E06AD0090E679E0FD8A828B83F0A3AA82ABEF
:0706BB00838A228B2380CC0F
:0E06C20090E678E0FA30E0F890E678E0FA2072
:0C06D000E21890E678E04440F0AA22AB6B
:0C06DC002390E679E08A828B83F075821F
:0206E8000122ED
:0B06EA0090E678E04440F075820022AA
:0206F500AA82D7
:0E06F70090E678E0FB20E6F890E6787480F05C
:07070500EA2AFA90E679F000
:0E070C0090E678E0FA30E0F890E678E0FA2027
:0C071A00E24790E678E0FA30E13FAA22C6
:04072600AB23AC2431
:0E072A00EC602B8A828B83E0FDA3AA82AB8356
:0607380090E679EDF01CD3
:0E073E0090E678E0FD30E0F890E678E0FD20EF
:0C074C00E21590E678E0FD20E1D4800B7F
:0B07580090E678E04440F0758201223A
:0B07630090E678E04440F07582002230
:0A076E00AC82AD83AE23AF24BE00C1
:0507780004EF600C1FFE
:03077D000FE52263
:08078000120BB8A3DEFADFF84A
:050788008C828D83222C
:060DCB007516007517000B
:0A078D0090E680E0FA30E7197518D5
:03079700007519D1
:03079A00E0751AED
:03079D0012751BB7
:0307A000E0751CE5
:0307A3001C751DA5
:0307A600E0751EDD
:0307A9008A751F2F
:0207AC00E02249
:0407AE0075186E75D7
:0307B20019E075D6
:0307B5001A807532
:0307B8001BE075CE
:0307BB001C8A7520
:0307BE001DE075C6
:0307C1001E1C7586
:0307C4001FE02211
:0907C7005391EF75A100D201323B
:0C07D000C021C0E0C0F0C082C083C002A5
:0E07DC00C003C004C005C006C007C000C001B5
:0E07EA00C0D075D0005391EF75A10012078D9D
:0E07F800D0D0D001D000D007D006D005D0045C
:0D080600D003D002D083D082D0F0D0E0D05B
:02081300213290
:0C081500C021C0E0C0F0C082C083C0025F
:0E082100C003C004C005C006C007C000C0016F
:0E082F00C0D075D0005391EF75A10012078D57
:0E083D00D0D0D001D000D007D006D005D00416
:0D084B00D003D002D083D082D0F0D0E0D016
:0208580021324B
:05085A0012078D75225C
:03085F00C7752337
:0808620007758200120C3475C9
:03086A0022D07524
:06086D0023077582101242
:040873000C347522AA
:03087700157523D1
:0C087A0008758214120C3490E65C743196
:02088600F0225E
:0D088800E582547FFA24F7500475820022A7
:07089500BA01047582012283
:08089C00530201E4BA0001045B
:0308A400F58222B8
:0E08A700AA82BA010C90E6A1E0FB7C008B82D5
:0308B5008C83220F
:0E08B800BA810C90E6A2E0FB7C008B828C8360
:0108C600220F
:0E08C70053027FEA700C90E6A0E0FB7C008BF1
:0408D500828C83226C
:0E08D90090E6A3E0FB7C00EAC313FA7D00EA80
:0908E7002BFBED3C8B82F5832212
:0C08F000C20190E6B8E0FA530260BA00C2
:0308FC000280284F
:0508FF00BA2002800D8B
:05090400BA4002800E64
:05090900BA600280034A
:03090E00020BB029
:060911001205EF020BB01D
:0A0917001201CCE5826003020BB070
:060921001205EF020BB00D
:0D09270090E6B8E0FA530280BA8002800327
:03093400020AB103
:0B09370090E6B9E0FABA0003020A28BB
:05094200BA0602803539
:05094700BA080280085F
:05094C00BA0A02801749
:03095100020AABEC
:0C09540090E740E516F090E68AE4F09091
:08096000E68B7401F0020BB0FC
:0C09680090E740E517F090E68AE4F0907C
:08097400E68B7401F0020BB0E8
:0A097C0090E6BBE0FABA0102801712
:05098600BA02028038F6
:05098B00BA03028059CF
:05099000BA0602801B05
:05099500BA0702803CDE
:03099A00020A222C
:0A099D00AA18AB1990E6B3EBF07B4B
:0909A7000090E6B4EAF0020BB086
:0A09B000AA1AAB1B90E6B3EBF07B34
:0909BA000090E6B4EAF0020BB073
:0A09C300AA1CAB1D90E6B3EBF07B1D
:0909CD000090E6B4EAF0020BB060
:0A09D600AA1EAB1F90E6B3EBF07B06
:0909E0000090E6B4EAF0020BB04D
:0E09E90090E6BAE0FA90E09CE0FBC3EA9B4087
:0709F700061205EF020BB030
:0C09FE0090E6BAE075F002A4249DF5829A
:0B0A0A0074E035F0F583E0FAA3E09003
:0D0A1500E6B3F07B0090E6B4EAF0020BB00F
:060A22001205EF020BB00B
:0D0A280090E6B8E0FA53021FBA0002800AFF
:050A3500BA0102801D62
:050A3A00BA0268802EE5
:0E0A3F0090E7407401F090E741E4F090E68A01
:0A0A4D00F090E68B7402F0020BB08B
:0E0A570090E740E4F090E741F090E68AF090DE
:080A6500E68B7402F0020BB0F5
:0E0A6D0090E6BCE0F582120888E582602590D4
:0E0A7B00E6BCE0F5821208A7E0FA53020190F3
:0E0A8900E740EAF090E741E4F090E68AF09052
:080A9700E68B7402F0020BB0C3
:060A9F001205EF020BB08E
:060AA5001205EF020BB088
:060AAB001205EF020BB082
:0C0AB10090E6B9E0FA24F45003020BAD0B
:070ABD00EA2A2A900AC47323
:070AC400020BAD020AFA0269
:060ACB000B75020B560240
:060AD1000BAD020BAD02AB
:060AD7000BAD020BAD02A5
:060ADD000BAD020AE80265
:050AE3000BAD020AF159
:090AE80090E6BAE0F516020BB02D
:090AF10090E6BAE0F517020BB023
:0D0AFA0090E6B8E0FA53021FBA0002800532
:050B0700BA0247800A5C
:0A0B0C0090E6BAE01205EF020BB00C
:0D0B160090E6BAE0703090E6BCE0F5821287
:0D0B23000888E582602390E6BCE0F58212B0
:0E0B300008A7AA82AB83E0FC5304FE8A828BE6
:0E0B3E0083ECF090E6BCE0F5821205F78064CF
:050B4C001205EF805FBF
:050B51001205EF805ABF
:0E0B560090E6B8E0FA53021FBA004F90E6BADC
:070B6400E0FABA010280056E
:050B6B00BA0202804007
:050B70001205EF803BBF
:0E0B750090E6BAE0FA702C90E6BCE0F5821231
:0D0B83000888E582601A90E6BCE0F5821259
:0E0B900008A7AA82AB83E0FC4304018A828B93
:050B9E0083ECF0800D66
:050BA3001205EF8008BF
:050BA8001205EF8003BF
:030BAD001205EF3F
:080BB00090E6A0E04480F02271
:0E0BB80020F71030F6118883A88220F507F68A
:050BC600A88375830007
:010BCB002207
:030BCC00F280F7BD
:020BCF00F02212
:050BD100AA82BA030036
:070BD6004005EA249C5001D8
:010BDD0022F5
:090BDE00740F5AFBBB03028007EF
:070BE700740F5AFBBB0B4524
:0A0BEE00A2AF9202C2AFEA2400F5A4
:0C0BF80082E43400F5837402F07B00748A
:0C0C0400012AFCE43BFDEC2400F582ED2D
:0A0C10003400F583E523FCF07402C4
:0C0C1A002AFAE43BFBEA2400F582EB34EC
:0A0C260000F583AA227B00EAF0A289
:030C30000292AF7E
:010C3300229E
:080C3400E582FA24835001223D
:060C3C00EA5403600122EE
:0A0C4200A2AF9203C2AFEA2400F54E
:0C0C4C0082E43401F5837402F07B007434
:0C0C5800012AFCE43BFDEC2400F582EDD9
:0A0C64003401F583E523F074022A41
:0B0C6E00FAE43BFBEA2400F582EB34C3
:080C790001F583AA22EAF0A2B2
:040C81000392AF2209
:080C8500E582FA24CB500122A4
:060C8D00EA54036001229D
:0A0C9300A2AF9204C2AFEA2480F57C
:0C0C9D0082E43400F5837402F07B0074E4
:0C0CA900012AFCE43BFDEC2480F582ED08
:0A0CB5003400F583E523F074022AF1
:0B0CBF00FAE43BFBEA2480F582EB34F2
:080CCA0000F583AA22EAF0A262
:040CD2000492AF22B7
:080CD600C2E8C2EA75220075B4
:060CDE00230175824312A0
:040CE4000BD1752299
:030CE800807523F1
:0C0CEB0000758253120BD10090E650E41B
:0E0CF700F00090E652E4F00090E654E4F000C5
:0E0D050090E656E4F00090E65174FFF0009086
:0E0D1300E65374FFF00090E65574FFF0009078
:0E0D2100E65774FFF00090E658E4F090E659B3
:0E0D2F0074FFF090E65AE4F090E65B74FFF07B
:0E0D3D0090E65CE4F090E65D74FFF090E65EF8
:0E0D4B00E4F090E65F74FFF00090E660E4F0E4
:0D0D59000090E66174FFF090E662E4F09017
:0E0D6600E66374FFF090E665E4F090E66874D2
:0A0D74000BF05391AFD2E8D2EA224F
:010D7E002252
:020D7F00AA8246
:060D8100120D7EDAFB22D8
:030D870090FB508E
:080D8A00A3E582458370F92204
:040D9200AA82AB8303
:080D9600120D871ABAFF011BC0
:050D9E00EA4B70F42295
:030DD900758125FC
:0A0DDC001205CDE5826003020DD47C
:00000001FF
